:02000000B02E20
:1000080070082000AC007108AB007208AA007308E1
:10001800A9007408A8007508A7007608A600770844
:10002800A5007808A4007A08A3007B08A2007C0831
:10003800A10080310B1D8E290B11BB0A0319BC0AC4
:1000480000306E06031D2A2801306D06031D2F2877
:10005800DB0A0319DC0A003021002506031D3628B7
:1000680001302406031D3C282000D90A0319DA0AA6
:10007800003021002B06031D432801302A06031DEA
:1000880049282000E90A0319EA0A00302100270656
:10009800031D502801302606031D56282000E70AB4
:1000A8000319E80A20003B08F0003C08F1009226FA
:1000B8003108F4003208F5003308F6003408F70078
:1000C800E2250130031C0030F00070080319722883
:1000D80001302100E6000030E7008B1220005B08A9
:1000E800F0005C08F10092263108F4003208F500AF
:1000F8003308F6003408F700E2250130031C00300D
:10010800F000700803198C280130DF000030E0008F
:100118005908F0005A08F10092263108F400320814
:10012800F5003308F6003408F700E2250130031C17
:100138000030F00070080319A5280130D7000030FE
:10014800D8006908F0006A08F10092263108F40026
:100158003208F5003308F6003408F700E2250130CC
:10016800031C0030F00070080319BE280130E100BC
:100178000030E2006708F0006808F10092263108B4
:10018800F4003208F5003308F6003408F700E225D9
:100198000130031C0030F00070080319D728013023
:1001A800EB000030EC0000304806031DDD2801306C
:1001B8004706031DE228E50A0319E60A0030560639
:1001C800031DE82801305506031DED28E30A03192D
:1001D800E40A2E086602031DF3282D086502031C95
:1001E800FD28C701C801E501E6010130B70000306C
:1001F800B80030086402031D03292F086302031C9A
:100208000D29D501D601E301E4010130B900003020
:10021800BA0000303E06031D132901303D06031DB8
:100228002A29D10A0319D20A00305202031D1E29B5
:100238005A305102031C2A291810BD01BE01D101F0
:10024800D20101302100A2000030A30021000030BB
:100258003D06031D312901303C06031D4A292000B3
:10026800CF0A0319D00A00305002031D3D293F3040
:100278004F02031C4A292100BC01BD012000CF0107
:10028800D00101302100A0000030A1002100003081
:100298003506031D512901303406031D8C29E00A57
:1002A8000319E10A07306102031D5C290830600266
:1002B8000318632920000C14D301D4018B290730BB
:1002C80021006102031D6A2908306002031C7A2993
:1002D8001C306102031D72292030600203187A293C
:1002E80001302000D3000030D4008B291C302100BD
:1002F8006102031D812920306002031C8B294C30C8
:10030800E0001D30E1002000D301D4010C108E293B
:1003180020000C102000111C9829B50A0319B60AF0
:1003280011108030970096012C08F0002B08F1007E
:100338002A08F2002908F3002808F4002708F50025
:100348002608F6002508F7002408F8002308FA0014
:0A0358002208FB002108FC00090048
:080362002100B401B5010800FF
:10036A00003021002F06031DBC2902302E06031976
:10037A00CF2900302F06031DC42903302E06031986
:10038A00CF2900302F06031DCC291E302E06031953
:10039A00CF29D4290130EC000030ED00BA2A003010
:1003AA002F06031DDA2904302E060319ED29003021
:1003BA002F06031DE22905302E060319ED29003008
:1003CA002F06031DEA2932302E060319ED29F229D8
:1003DA000230EC000030ED00BA2A00302F06031D6F
:1003EA00F82906302E0603191B2A00302F06031D92
:1003FA00002A07302E0603191B2A00302F06031D78
:10040A00082A46302E0603191B2A00302F06031D20
:10041A00102A47302E0603191B2A00302F06031D07
:10042A00182A48302E0603191B2A202A0330EC000A
:10043A000030ED00BA2A00302F06031D262A0830A4
:10044A002E060319392A00302F06031D2E2A0930D9
:10045A002E060319392A00302F06031D362A5A3070
:10046A002E060319392A3E2A0430EC000030ED002A
:10047A00BA2A00302F06031D442A0A302E06031911
:10048A00672A00302F06031D4C2A0B302E0603194B
:10049A00672A00302F06031D542A6E302E060319D0
:1004AA00672A00302F06031D5C2A6F302E060319B7
:1004BA00672A00302F06031D642A70302E0603199E
:1004CA00672A6C2A0530EC000030ED00BA2A0030A9
:1004DA002F06031D722A0C302E060319952A0030A6
:1004EA002F06031D7A2A0D302E060319952A00308D
:1004FA002F06031D822A82302E060319952A003000
:10050A002F06031D8A2A83302E060319952A0030E6
:10051A002F06031D922A84302E060319952A9A2A39
:10052A000630EC000030ED00BA2A00302F06031D19
:10053A00A02A0E302E060319B32A00302F06031DF7
:10054A00A82A0F302E060319B32A00302F02031DE2
:10055A00B02A96302E020318B32AB82A0730EC00C4
:0C056A000030ED00BA2AEC01ED010800A1
:08057600FA1FF2130030080027
:10057E00FB14FB1FC92AFF30F300F200F100F0005C
:08058E00FA0DF20CFF30080029
:0E059600F201F101F001F801F301003008005C
:1005A4007B15FB1FDC2A0130F300F201F101F0019D
:0805B400FA0DF20CFF30080003
:1005BC00B52131086D06031DE52A6C0830060319B8
:1005CC00F32A3208AC003308AD003008B200310811
:0C05DC00B3006C08B0006D08B10008000E
:1005E80020008C100C110E100C10B121AE01AF01BF
:1005F800AC01AD01B201B301B001B10120000E138D
:100608002100DE01DF0100305F02031D0D2B1030D9
:100618005E020318222B5E08F0005F08F100F03537
:10062800F10DBE30700786000030713D87008101F2
:0E06380041318101DE0A0319DF0A072B080099
:10064600B52100306F06031D2A2B00306E06031DF0
:100656002F2BE001E101402B6E08F0006F08F1003E
:10066600F035F10DBE30700784000030713D850015
:100676000008E00001310008E1000130B40000305C
:04068600B5000800B3
:10068A002000C701C801D501D601B901BA01B701D5
:10069A00B801E301E401E501E601B701B801B901D6
:0A06AA00BA018C100C110E100800AC
:1006B4007C18902BFC18612B7C19AF2B5A2BA001B2
:1006C4007208031D812B7108F2007008F10078088C
:1006D400F000F801A0157208031D812B7108F200C7
:1006E4007008F100F001A01120167208031D812B7F
:1006F4007108F200F101A01572080319A32B200858
:10070400F302031D031CA72B0310F21B902BF80DFF
:10071400F00DF10DF20DF30B872BA72B7B1B701C37
:10072400AB2BF81FAB2BF00A0319F10A0319F20AD9
:10073400031DAB2BF20CF10CF00CF30A0319AF2BD5
:10074400AB2B0130FC00CB22B22B0230FC00D222B6
:10075400B22B0430FC00BB22B22B0830FC00BF22B9
:040764000000080089
:10076800A0017208031DC92B7108F2007008F1007E
:10077800F001A0157208031DC92B7108F200F101E0
:10078800A011201672080319D72B2008F302031DA5
:10079800031CDB2B0310F21BDF2BF00DF10DF20D08
:1007A800F30BCF2BDB2B0130FC00CB22E22B0230EA
:0E07B800FC00D222E22B0430FC00BB22080021
:1007C600F10120008E1BF10A003021003906031DBD
:1007D600EE2B380871060319FD2B003020006E063B
:1007E600031DF72B00306D06031DFD2B0130ED00B8
:1007F6000030EE002000F1010C1AF10A0030210051
:100806003B06031D082C3A0871060319162C003006
:100816002506031D102C00302406031D162C01305E
:10082600A4000030A500F10120000E1AF10A0030E4
:100836004A06031D202C4908710603192F2C003087
:1008460021002B06031D292C00302A06031D2F2C00
:100856000130AA000030AB00F10120008E1AF10A27
:1008660000304C06031D392C4B0871060319482C21
:10087600003021002706031D422C00302606031DEA
:10088600482C0130A6000030A700210029082000CE
:100896004E06031D512C4D08210028060319602C15
:1008A600003020005E06031D5A2C00305D06031D35
:1008B600602C0130DD000030DE00200000306006D4
:1008C600031D672C01305F06031D9E2C00306E064B
:1008D600031D6F2C01306D06031D9E2CF1018E1B2E
:1008E600F10A003021003906031D7B2C38087106F9
:1008F60003199E2C452300308E1B01302100B800C1
:10090600B90100303906031D8A2C01303806031D53
:10091600912C0130B6000030B700932CB601B70118
:100926008831002080312000DF01E001ED01EE0179
:10093600DB01DC01C22C200000306006031DA52C63
:1009460001305F06031DC22C00306E06031DAD2C60
:1009560001306D06031DC22CF1018E1BF10A003019
:1009660021003906031DB92C38087106031DC22C57
:100976002000DF01E001ED01EE01DB01DC012000DA
:1009860000305806031DC92C01305706031DF52CEF
:10099600003021002506031DD22C01302406031D3C
:1009A600F52CF10120000C1AF10A003021003B065B
:1009B600031DDF2C3A0871060319F52C4523003078
:1009C6000C1A01302100BA00BB01883100208031A9
:1009D6002000D701D8012100A401A5012000D901DA
:1009E600DA011D2D200000305806031DFC2C0130B5
:1009F6005706031D1D2D003021002506031D052D5C
:100A060001302406031D1D2DF10120000C1AF10AE8
:100A1600003021003B06031D122D3A087106031D06
:100A26001D2D2000D701D8012100A401A501200019
:100A3600D901DA01200000306206031D242D0130A1
:100A46006106031D4E2D003021002B06031D2D2DA2
:100A560001302A06031D4E2DF10120000E1AF10A5F
:100A660000304A06031D392D4908710603194E2D1B
:100A7600452300300E1A0130C900CA018831002012
:100A860080312000E101E2012100AA01AB01200032
:100A9600E901EA01742D200000306206031D552D80
:100AA60001306106031D742D003021002B06031D45
:100AB6005E2D01302A06031D742DF10120000E1A49
:100AC600F10A00304A06031D6A2D49087106031D06
:100AD600742DE101E2012100AA01AB012000E90128
:100AE600EA01200000306C06031D7B2D01306B06E9
:100AF600031DA52D003021002706031D842D01307E
:100B06002606031DA52DF10120008E1AF10A0030DC
:100B16004C06031D902D4B0871060319A52D452380
:100B260000308E1A0130CB00CC0188310020803194
:100B36002000EB01EC012100A601A7012000E7013E
:100B4600E801CB2D200000306C06031DAC2D0130D2
:100B56006B06031DCB2D003021002706031DB52D86
:100B660001302606031DCB2DF10120008E1AF10A55
:100B760000304C06031DC12D4B087106031DCB2DFD
:100B8600EB01EC012100A601A7012000E701E80125
:100B96002100290820004E06031DD42D4D082100F2
:100BA60028060319E12D20004D082100A800200089
:0E0BB6004E082100A90088310020803108007F
:100BC4002000FA017308031D7A147708031DFA1430
:100BD4007A0803192D2E033A0319F82D7A18F52DE6
:100BE400F61F2B2E292EF21F292E2B2E7208803948
:100BF400FA00F21376088039F6137A060319062EE2
:100C04007A080319292E2B2E7708730203190D2E47
:100C1400031C212E252E760872020319142E031CA0
:100C2400212E252E7508710203191B2E031C212E5B
:100C3400252E7408700203192D2E0318252EFA0888
:100C440003192B2E292EFA080319292E2B2E0314EF
:0E0C5400080003100800031403150800080030
:100C620020007008F8007108F0007208F1007308A3
:100C7200F200F301FB01FC019E30F300FA010230A5
:060C8200FC005A230800EB
:100C880023008C018C168E0122009113931380305F
:100C98002100E8003E30E900EA01EB01E201E3014E
:100CA800E401E501B0308E0020008E0138302100CB
:100CB8008C0020008C018B170230210095008B16C8
:100CC800643020009500813098001110970196013A
:100CD800210011142000B501B6010B170030B10036
:100CE8000030B2004030B3008230B4002D30AD0087
:100CF8000030AE002D30AF000030B0002100E6011A
:100D0800E70120008C100C110E100C108E110E1320
:0C0D18000130BD000030BE004523080083
:100D240020007008F8007108F000F101F201F301ED
:100D3400FB01FC019630F300FA017008F100780819
:0A0D4400F000F801F201B4230800EA
:100D4E0012001E00F003031DA72EF103031DA72E94
:020D5E0008008B
:100D6000C8274426003021006706031DB92E013034
:100D70006606031DC42EE601E7012000BB01BC018D
:100D8000643095000B118B16E323003020003806E9
:100D9000031DCC2E01303706031DFA2E003042060B
:100DA000031DD42E01304106031DD72E8C100030B8
:100DB0004406031DDD2E01304306031DE02E0C11F9
:100DC00000304606031DE62E01304506031DE92EC0
:100DD0000E1000305406031DEF2E01305306031D84
:100DE000F22E0C100130D5000030D600B901BA0146
:100DF000B701B80100303A06031D002F0130390653
:100E0000031D2E2F00304206031D082F013041061E
:100E1000031D0B2F8C1400304406031D112F0130CD
:100E20004306031D142F0C1500304606031D1A2F10
:100E300001304506031D1D2F0E1400305406031DFE
:100E4000232F01305306031D262F0C140130C70039
:100E50000030C800B701B801B901BA010030210063
:100E60002106031D352F01302006031D442FA0014C
:100E7000A10120008C100C110E102100B601B70149
:100E8000452388310020803100302306031D4A2F7E
:100E900001302206031D812FA201A30120001608A4
:100EA0002100E200E301E401E5016208F0006308CB
:100EB000F1006408F2006508F30031260030F40008
:100EC0000030F5003830F6008230F700E2250130BE
:100ED000031C0030F00070080319732F0130CD009F
:100EE0000030CE00752FCD01CE014D18792F8E1117
:100EF0007A2F8E15960197010130BD000030BE009B
:060F00001814B22E822F2E
:100F900086308400873085004230F0000130F10057
:100FA0002D30860000308700A726413084008F3026
:100FB00085004230F0000130F100A03086000030A2
:060FC0008700A7260800CF
:10100000003021003106031D072800303006031987
:101010001D288031B52188316C08F0006D08F10081
:10102000F035F10DBE30700786000030713D87004D
:101030006008810061084131810000303906031DDC
:10104000232800303806031D29288031F4228831F6
:10105000742800303906031D2F2801303806031D7F
:10106000472800303706031D372801303606031D98
:1010700047280130BC000030BD0020008C140C1546
:101080000E148031B1218831AE01AF0174280030D7
:101090003906031D4D2801303806031D7428003021
:1010A0003B06031D552800303A06031D7428003006
:1010B00020004A06031D5E2800304906031D7428DF
:1010C00000304C06031D662800304B06031D7428B3
:1010D000003021003706031D6F2800303606031D3F
:1010E00074288031F4228831210000303906031D34
:1010F0007B2801303806031DAB2900303B06031D59
:10110000832800303A06031DAB29003020004A0630
:10111000031D8C2800304906031DAB2900304C0606
:10112000031D942801304B06031DAB29003021001C
:101130003706031D9D2800303606031DAB2920000D
:101140008C100C110130C7000030C8000130BF0006
:101150000030C000C101C201C301C4010130C5009B
:101160000030C600003021002F06031DB92846308C
:101170002E060319C42800302F06031DC12807308E
:101180002E060319C428E9284830AE000030AF000D
:1011900000303306031DCE2801303206031DDC2843
:1011A0001E30AE000030AF000130EE000030EF0026
:1011B000803123238831E82800303306031DE228DC
:1011C00002303206031DE8283230AE000030AF0096
:1011D000AB2900302F06031DEF2848302E06031DD3
:1011E000F228AB2900302F06031DF8286E302E069A
:1011F0000319032900302F06031D00290B302E068A
:101200000319032928297030AE000030AF000030E8
:101210003306031D0D2901303206031D1B291E3024
:10122000AE000030AF000130EE000030EF00803142
:1012300023238831272900303306031D2129043058
:101240003206031D27291E30AE000030AF00AB2947
:1012500000302F06031D2E2970302E06031D312964
:10126000AB2900302F06031D372998302E06031DA9
:101270003E29F230AE000530AF00AB292F08053A09
:10128000031D4429F2302E06031D4729AB290030E7
:101290002F06031D4D2999302E06031D5429FB30BE
:1012A000AE000530AF00AB292F08053A031D5A29BF
:1012B000FB302E06031D5D29AB2900302F06031DD0
:1012C000632903302E06031D6A291E30AE0000304C
:1012D000AF00AB2900302F06031D70291E302E06EB
:1012E000031D7329AB29003020004E06031D7A2907
:1012F00000304D06031D892902302100AE00003068
:10130000AF00E001E1018031B121883120000C10F3
:10131000AB29003021002F06031D902902302E0634
:10132000031D9E290330AE000030AF00E001E10153
:10133000EE01EF01803123238831AB290330AE0069
:101340000030AF00E001E1010130EE000030EF00BD
:10135000803123238831210000303906031DB22952
:1013600001303806031DDE2A00303B06031DBA2972
:1013700000303A06031DDE2A003020004A06031D15
:10138000C32901304906031DDE2A00304C06031D27
:10139000CB2900304B06031DDE2A00302100370622
:1013A000031DD42900303606031DDE2A20008C10D0
:1013B0000130C7000030C8000130BF000030C0005D
:1013C000C101C2010130C3000030C400C501C60123
:1013D0000E10003021002F06031DF02946302E0686
:1013E0000319FB2900302F06031DF82907302E06AC
:1013F0000319FB29202A4730AE000030AF0000302F
:101400003306031D052A01303206031D0C2A323033
:10141000AE000030AF001F2A00303306031D122A31
:1014200002303206031D1F2A3230AE000030AF00FA
:101430000230EE000030EF00803123238831DE2AB5
:1014400000302F06031D262A47302E06031D292AA9
:10145000DE2A00302F06031D2F2A82302E060319A4
:101460003A2A00302F06031D372A0D302E060319A5
:101470003A2A5E2A8430AE00AF0100303306031DE5
:10148000432A02303206031D512A3230AE000030AA
:10149000AF000230EE000030EF00803123238831AE
:1014A0005D2A00303306031D572A04303206031D1F
:1014B0005D2A3230AE000030AF00DE2A00302F0649
:1014C000031D642A84302E0603197F2A2F08053A4B
:1014D000031D6C2AE8302E0603197F2A2F08053ACF
:1014E000031D742AFC302E0603197F2A00302F06B4
:1014F000031D7C2A32302E0603197F2A802ADE2A19
:1015000000302F06031D862A97302E06031D8D2AD4
:10151000E830AE000530AF00DE2A00302F06031D94
:10152000932A99302E06031D9A2AFC30AE0005300E
:10153000AF00DE2A00302F06031DA02A05302E063C
:10154000031DA72A3230AE000030AF00DE2A003083
:1015500020004E06031DAE2A00304D06031DB92A99
:1015600004302100AE000030AF008031B12188315D
:10157000DE2A210000302F06031DC02A04302E066B
:10158000031DD02A0530AE000030AF00E001E101BC
:10159000EE01EF0180312323883120000C14DE2A74
:1015A00005302100AE000030AF00E001E101023063
:1015B000EE000030EF00803123238831210000301D
:1015C0003906031DE52A01303806031D9B2B003028
:1015D0003B06031DED2A00303A06031D9B2B00300D
:1015E00020004A06031DF62A01304906031D9B2BE5
:1015F00000304C06031DFE2A01304B06031D9B2BB9
:10160000003021003706031D072B00303606031D6E
:101610009B2B20008C100130C7000030C800013027
:10162000BF000030C000C101C2010130C300003062
:10163000C4000130C5000030C600003021002F0674
:10164000031D242B07302E06031D2B2B4630AE0026
:101650000030AF009B2B00302F06031D312B46308E
:101660002E06031D342B9B2B00302F06031D3A2B17
:1016700096302E060319452B00302F06031D422BF2
:101680000F302E060319452B5C2B9930AE00AF01AD
:1016900000303306031D4E2B03303206031D5B2B37
:1016A0004630AE000030AF000330EE000030EF00F7
:1016B0008031232388319B2B00302F06031D622BA2
:1016C00099302E06031D652B9B2B003020004E0603
:1016D000031D6C2B00304D06031D772B06302100B7
:1016E000AE000030AF008031B12188319B2B21004A
:1016F00000302F06031D7E2B06302E06031D8C2B7B
:101700000730AE000030AF00E001E101EE01EF0173
:101710008031232388319B2B0730AE000030AF008F
:10172000E001E1010330EE000030EF0080312323BF
:10173000883120000E17003021003906031DA22B2E
:1017400001303806031DCD2C00303B06031DAA2BAB
:1017500001303A06031DCD2C003020004A06031D3F
:10176000B32B00304906031DCD2C00304C06031D61
:10177000BB2B00304B06031DCD2C0030210037065B
:10178000031DC42B00303606031DCD2C0130200074
:10179000C7000030C8000130BF000030C000013079
:1017A000C1000030C200C301C401C501C6010C1153
:1017B0000E10003021002F06031DE02B6E302E0688
:1017C0000319EB2B00302F06031DE82B0B302E06E0
:1017D0000319EB2B102C6F30AE000030AF0000303F
:1017E0003306031DF52B01303206031DFC2B5A3046
:1017F000AE000030AF000F2C00303306031D022C6A
:1018000004303206031D0F2C5A30AE000030AF00FA
:101810000430EE000030EF00803123238831CD2CDE
:1018200000302F06031D162C6F302E06031D192CB9
:10183000CD2C00302F06031D1F2C82302E060319DD
:101840002A2C00302F06031D272C0D302E060319DD
:101850002A2C4E2C8330AE00AF0100303306031D1E
:10186000332C02303206031D3A2C5A30AE000030C1
:10187000AF004D2C00303306031D402C04303206DF
:10188000031D4D2C5A30AE000030AF000430EE0086
:101890000030EF00803123238831CD2C00302F061B
:1018A000031D542C83302E06031D572CCD2C0030E5
:1018B0002F06031D5D2C97302E06031D642CE73088
:1018C000AE000530AF00CD2C2F08053A031D6A2C61
:1018D000E7302E06031D6D2CCD2C00302F06031D86
:1018E000732C98302E06031D7A2CF130AE00053093
:1018F000AF00CD2C2F08053A031D802CF1302E06A9
:10190000031D832CCD2C00302F06031D892C09309C
:101910002E06031D902C5A30AE000030AF00CD2CA7
:1019200000302F06031D962C5A302E06031D992CCD
:10193000CD2C003020004E06031DA02C00304D069B
:10194000031DAB2C08302100AE000030AF00803109
:10195000B1218831CD2C210000302F06031DB22C7F
:1019600008302E06031DC02C0930AE000030AF0039
:10197000E001E101EE01EF01803123238831CD2C1C
:101980000930AE000030AF00E001E1010430EE00AC
:101990000030EF00803123238831210000303906E8
:1019A000031DD42C01303806031D892D00303B0661
:1019B000031DDC2C01303A06031D892D0030200068
:1019C0004A06031DE52C00304906031D892D003011
:1019D0004C06031DED2C01304B06031D892D0030F4
:1019E00021003706031DF62C00303606031D892D15
:1019F00001302000C7000030C8000130BF000030B7
:101A0000C0000130C1000030C200C301C401013078
:101A1000C5000030C6000C110E10003021002F064A
:101A2000031D142D96302E0603191F2D00302F068E
:101A3000031D1C2D0F302E0603191F2D362D983037
:101A4000AE00AF0100303306031D282D05303206ED
:101A5000031D352D6E30AE000030AF000530EE00B6
:101A60000030EF00803123238831892D00302F068C
:101A7000031D3C2D98302E06031D3F2D892D00306F
:101A80002F06031D452D0B302E06031D4C2D6E30E9
:101A9000AE000030AF00892D00302F06031D522DFF
:101AA0006E302E06031D552D892D003020004E0668
:101AB000031D5C2D00304D06031D672D0A302100EB
:101AC000AE000030AF008031B1218831892D210076
:101AD00000302F06031D6E2D0A302E06031D7C2DAF
:101AE0000B30AE000030AF00E001E101EE01EF018C
:101AF000803123238831892D0B30AE000030AF00B8
:101B0000E001E1010530EE000030EF0080312323D9
:101B10008831210000303906031D902D0130380630
:101B2000031D422E00303B06031D982D01303A065E
:101B3000031D422E003020004A06031DA12D013056
:101B40004906031D422E00304C06031DA92D00300E
:101B50004B06031D422E003021003706031DB22D17
:101B600000303606031D422E01302000C700003031
:101B7000C8000130BF000030C0000130C10000309B
:101B8000C2000130C3000030C400C501C6010C1101
:101B9000003021002F06031DCF2D96302E0603198D
:101BA000DA2D00302F06031DD72D0F302E06031916
:101BB000DA2DF02D9730AE00AF0100303306031D53
:101BC000E32D06303206031DEF2D8230AE00AF014B
:101BD0000630EE000030EF00803123238831422EA2
:101BE00000302F06031DF62D97302E06031DF92D0C
:101BF000422E00302F06031DFF2D0D302E06031D33
:101C0000052E8230AE00AF01422E00302F06031D9C
:101C10000B2E82302E06031D0E2E422E0030200089
:101C20004E06031D152E00304D06031D202E0C30D0
:101C30002100AE000030AF008031B1218831422E4A
:101C4000210000302F06031D272E0C302E06031D09
:101C5000352E0D30AE000030AF00E001E101EE01A5
:101C6000EF01803123238831422E0D30AE00003049
:101C7000AF00E001E1010630EE000030EF008031FE
:101C800023238831210000303906031D492E0130FD
:101C90003806031DD32E00303B06031D512E0130A4
:101CA0003A06031DD32E003020004A06031D5A2E8B
:101CB00001304906031DD32E00304C06031D622E51
:101CC00001304B06031DD32E003021003706031DC3
:101CD0006B2E00303606031DD32E01302000C700C6
:101CE0000030C8000130BF000030C0000130C1002A
:101CF0000030C2000130C3000030C4000130C50014
:101D00000030C60000304E06031D882E00304D0600
:101D1000031DA82E003021002F06031D912E0F3029
:101D20002E06031D972E9630AE00AF01A72E003071
:101D30002F06031D9D2E96302E06031DA02EA72EC6
:101D40000E30AE000030AF008031B1218831D32E8B
:101D5000210000302F06031DAF2E0E302E06031D6E
:101D6000BD2E0F30AE000030AF00E001E101EE010A
:101D7000EF01803123238831D32E00302F06031D3D
:101D8000C32E96302E06031DC62ED32E0F30AE0066
:101D90000030AF00E001E1010730EE000030EF005D
:101DA000803123238831003020004806031DDA2EBD
:101DB00001304706031D092F00304006031DE22EA7
:101DC00001303F06031DFF2E00304206031DEA2EA0
:101DD00001304106031DED2E8C1400304406031D16
:101DE000F32E01304306031DF62E0C150030460677
:101DF000031DFC2E01304506031DFF2E0E1400307E
:101E00005406031D052F01305306031D082F0C1423
:101E10003D2F00305606031D0F2F01305506031DC0
:101E20003D2F00304006031D172F01303F06031DD4
:101E3000342F00304206031D1F2F01304106031DC1
:101E4000222F8C1000304406031D282F013043063A
:101E5000031D2B2F0C1100304606031D312F0130BE
:101E60004506031D342F0E1000305406031D3A2F73
:101E700001305306031D3D2F0C108031DE228831C6
:021E8000080058
:040F0C000034003479
:040F10000034003475
:080F1400003400340034003405
:040F1C000034003469
:040F20000034003465
:040F24000034003461
:040F2800003400345D
:040F2C000034003459
:040F30000034003455
:0C0F340000340034003400340034003479
:040F40000034003445
:040F44000034003441
:040F4800003400343D
:040F4C000034003439
:040F50000034003435
:040F54000034003431
:040F5800003400342D
:040F5C000034003429
:040F60000034003425
:040F64000034003421
:040F6800003400341D
:040F6C000034003419
:040F70000034003415
:040F74000034003411
:040F7800003400340D
:040F7C000034003409
:040F80000034003405
:040F84000034003401
:040F880000340034FD
:040F8C0000340034F9
:041E820000340034F4
:041E860000340034F0
:041E8A0000340034EC
:041E8E0000340034E8
:041E920000340034E4
:041E960000340034E0
:041E9A0000340034DC
:041E9E0000340034D8
:041EA20000340034D4
:041EA60000340034D0
:041EAA0000340034CC
:041EAE0000340034C8
:041EB20000340034C4
:041EB60000340034C0
:041EBA0000340034BC
:101EBE000034003400340034003400340034003474
:101ECE000034003400340034003400340034003464
:101EDE000034003400340034003400340034003454
:101EEE000034003400340034003400340034003444
:041EFE000034003478
:041F02000034003473
:020000040001F9
:04000E00443FFF3F2D
:00000001FF
