:02000000B02E20
:1000080070082000AC007108AB007208AA007308E1
:10001800A9007408A8007508A7007608A600770844
:10002800A5007808A4007A08A3007B08A2007C0831
:10003800A10080310B1D8E290B11BB0A0319BC0AC4
:1000480000306E06031D2A2801306D06031D2F2877
:10005800DB0A0319DC0A003021002506031D3628B7
:1000680001302406031D3C282000D90A0319DA0AA6
:10007800003021002B06031D432801302A06031DEA
:1000880049282000E90A0319EA0A00302100270656
:10009800031D502801302606031D56282000E70AB4
:1000A8000319E80A20003B08F0003C08F1009226FA
:1000B8003108F4003208F5003308F6003408F70078
:1000C800E2250130031C0030F00070080319722883
:1000D80001302100E6000030E7008B1220005B08A9
:1000E800F0005C08F10092263108F4003208F500AF
:1000F8003308F6003408F700E2250130031C00300D
:10010800F000700803198C280130DF000030E0008F
:100118005908F0005A08F10092263108F400320814
:10012800F5003308F6003408F700E2250130031C17
:100138000030F00070080319A5280130D7000030FE
:10014800D8006908F0006A08F10092263108F40026
:100158003208F5003308F6003408F700E2250130CC
:10016800031C0030F00070080319BE280130E100BC
:100178000030E2006708F0006808F10092263108B4
:10018800F4003208F5003308F6003408F700E225D9
:100198000130031C0030F00070080319D728013023
:1001A800EB000030EC0000304806031DDD2801306C
:1001B8004706031DE228E50A0319E60A0030560639
:1001C800031DE82801305506031DED28E30A03192D
:1001D800E40A2E086602031DF3282D086502031C95
:1001E800FD28C701C801E501E6010130B70000306C
:1001F800B80030086402031D03292F086302031C9A
:100208000D29D501D601E301E4010130B900003020
:10021800BA0000303E06031D132901303D06031DB8
:100228002A29D10A0319D20A00305202031D1E29B5
:100238005A305102031C2A291810BD01BE01D101F0
:10024800D20101302100A2000030A30021000030BB
:100258003D06031D312901303C06031D4A292000B3
:10026800CF0A0319D00A00305002031D3D293F3040
:100278004F02031C4A292100BC01BD012000CF0107
:10028800D00101302100A0000030A1002100003081
:100298003506031D512901303406031D8C29E00A57
:1002A8000319E10A01306102031D5C29C2306002B2
:1002B8000318632920000C14D301D4018B290130C1
:1002C80021006102031D6A29C2306002031C7A29D9
:1002D80003306102031D72298430600203187A29F1
:1002E80001302000D3000030D4008B2903302100D6
:1002F8006102031D812984306002031C8B29E830C8
:10030800E0000330E1002000D301D4010C108E2955
:1003180020000C102000111C9829B50A0319B60AF0
:1003280011108030970096012C08F0002B08F1007E
:100338002A08F2002908F3002808F4002708F50025
:100348002608F6002508F7002408F8002308FA0014
:0A0358002208FB002108FC00090048
:080362002100B401B5010800FF
:10036A00003021002F06031DBC2902302E06031976
:10037A00CF2900302F06031DC42903302E06031986
:10038A00CF2900302F06031DCC291E302E06031953
:10039A00CF29D4290130EC000030ED00BA2A003010
:1003AA002F06031DDA2904302E060319ED29003021
:1003BA002F06031DE22905302E060319ED29003008
:1003CA002F06031DEA2932302E060319ED29F229D8
:1003DA000230EC000030ED00BA2A00302F06031D6F
:1003EA00F82906302E0603191B2A00302F06031D92
:1003FA00002A07302E0603191B2A00302F06031D78
:10040A00082A46302E0603191B2A00302F06031D20
:10041A00102A47302E0603191B2A00302F06031D07
:10042A00182A48302E0603191B2A202A0330EC000A
:10043A000030ED00BA2A00302F06031D262A0830A4
:10044A002E060319392A00302F06031D2E2A0930D9
:10045A002E060319392A00302F06031D362A5A3070
:10046A002E060319392A3E2A0430EC000030ED002A
:10047A00BA2A00302F06031D442A0A302E06031911
:10048A00672A00302F06031D4C2A0B302E0603194B
:10049A00672A00302F06031D542A6E302E060319D0
:1004AA00672A00302F06031D5C2A6F302E060319B7
:1004BA00672A00302F06031D642A70302E0603199E
:1004CA00672A6C2A0530EC000030ED00BA2A0030A9
:1004DA002F06031D722A0C302E060319952A0030A6
:1004EA002F06031D7A2A0D302E060319952A00308D
:1004FA002F06031D822A82302E060319952A003000
:10050A002F06031D8A2A83302E060319952A0030E6
:10051A002F06031D922A84302E060319952A9A2A39
:10052A000630EC000030ED00BA2A00302F06031D19
:10053A00A02A0E302E060319B32A00302F06031DF7
:10054A00A82A0F302E060319B32A00302F02031DE2
:10055A00B02A96302E020318B32AB82A0730EC00C4
:0C056A000030ED00BA2AEC01ED010800A1
:08057600FA1FF2130030080027
:10057E00FB14FB1FC92AFF30F300F200F100F0005C
:08058E00FA0DF20CFF30080029
:0E059600F201F101F001F801F301003008005C
:1005A4007B15FB1FDC2A0130F300F201F101F0019D
:0805B400FA0DF20CFF30080003
:1005BC00B52131086D06031DE52A6C0830060319B8
:1005CC00F32A3208AC003308AD003008B200310811
:0C05DC00B3006C08B0006D08B10008000E
:1005E80020008C100C110E100C10B121AE01AF01BF
:1005F800AC01AD01B201B301B001B10120000E138D
:100608002100DE01DF0100305F02031D0D2B1030D9
:100618005E020318222B5E08F0005F08F100F03537
:10062800F10DBE30700786000030713D87008101F2
:0E06380041318101DE0A0319DF0A072B080099
:10064600B52100306F06031D2A2B00306E06031DF0
:100656002F2BE001E101402B6E08F0006F08F1003E
:10066600F035F10DBE30700784000030713D850015
:100676000008E00001310008E1000130B40000305C
:04068600B5000800B3
:10068A002000C701C801D501D601B901BA01B701D5
:10069A00B801E301E401E501E601B701B801B901D6
:0A06AA00BA018C100C110E100800AC
:1006B4007C18902BFC18612B7C19AF2B5A2BA001B2
:1006C4007208031D812B7108F2007008F10078088C
:1006D400F000F801A0157208031D812B7108F200C7
:1006E4007008F100F001A01120167208031D812B7F
:1006F4007108F200F101A01572080319A32B200858
:10070400F302031D031CA72B0310F21B902BF80DFF
:10071400F00DF10DF20DF30B872BA72B7B1B701C37
:10072400AB2BF81FAB2BF00A0319F10A0319F20AD9
:10073400031DAB2BF20CF10CF00CF30A0319AF2BD5
:10074400AB2B0130FC00CB22B22B0230FC00D222B6
:10075400B22B0430FC00BB22B22B0830FC00BF22B9
:040764000000080089
:10076800A0017208031DC92B7108F2007008F1007E
:10077800F001A0157208031DC92B7108F200F101E0
:10078800A011201672080319D72B2008F302031DA5
:10079800031CDB2B0310F21BDF2BF00DF10DF20D08
:1007A800F30BCF2BDB2B0130FC00CB22E22B0230EA
:0E07B800FC00D222E22B0430FC00BB22080021
:1007C600F10120008E1BF10A003021003906031DBD
:1007D600EE2B380871060319FD2B003020006E063B
:1007E600031DF72B00306D06031DFD2B0130ED00B8
:1007F6000030EE002000F1010C1AF10A0030210051
:100806003B06031D082C3A0871060319162C003006
:100816002506031D102C00302406031D162C01305E
:10082600A4000030A500F10120000E1AF10A0030E4
:100836004A06031D202C4908710603192F2C003087
:1008460021002B06031D292C00302A06031D2F2C00
:100856000130AA000030AB00F10120008E1AF10A27
:1008660000304C06031D392C4B0871060319482C21
:10087600003021002706031D422C00302606031DEA
:10088600482C0130A6000030A700210029082000CE
:100896004E06031D512C4D08210028060319602C15
:1008A600003020005E06031D5A2C00305D06031D35
:1008B600602C0130DD000030DE00200000306006D4
:1008C600031D672C01305F06031D9E2C00306E064B
:1008D600031D6F2C01306D06031D9E2CF1018E1B2E
:1008E600F10A003021003906031D7B2C38087106F9
:1008F60003199E2C452300308E1B01302100B800C1
:10090600B90100303906031D8A2C01303806031D53
:10091600912C0130B6000030B700932CB601B70118
:100926008831002080312000DF01E001ED01EE0179
:10093600DB01DC01C22C200000306006031DA52C63
:1009460001305F06031DC22C00306E06031DAD2C60
:1009560001306D06031DC22CF1018E1BF10A003019
:1009660021003906031DB92C38087106031DC22C57
:100976002000DF01E001ED01EE01DB01DC012000DA
:1009860000305806031DC92C01305706031DF52CEF
:10099600003021002506031DD22C01302406031D3C
:1009A600F52CF10120000C1AF10A003021003B065B
:1009B600031DDF2C3A0871060319F52C4523003078
:1009C6000C1A01302100BA00BB01883100208031A9
:1009D6002000D701D8012100A401A5012000D901DA
:1009E600DA011D2D200000305806031DFC2C0130B5
:1009F6005706031D1D2D003021002506031D052D5C
:100A060001302406031D1D2DF10120000C1AF10AE8
:100A1600003021003B06031D122D3A087106031D06
:100A26001D2D2000D701D8012100A401A501200019
:100A3600D901DA01200000306206031D242D0130A1
:100A46006106031D4E2D003021002B06031D2D2DA2
:100A560001302A06031D4E2DF10120000E1AF10A5F
:100A660000304A06031D392D4908710603194E2D1B
:100A7600452300300E1A0130C900CA018831002012
:100A860080312000E101E2012100AA01AB01200032
:100A9600E901EA01742D200000306206031D552D80
:100AA60001306106031D742D003021002B06031D45
:100AB6005E2D01302A06031D742DF10120000E1A49
:100AC600F10A00304A06031D6A2D49087106031D06
:100AD600742DE101E2012100AA01AB012000E90128
:100AE600EA01200000306C06031D7B2D01306B06E9
:100AF600031DA52D003021002706031D842D01307E
:100B06002606031DA52DF10120008E1AF10A0030DC
:100B16004C06031D902D4B0871060319A52D452380
:100B260000308E1A0130CB00CC0188310020803194
:100B36002000EB01EC012100A601A7012000E7013E
:100B4600E801CB2D200000306C06031DAC2D0130D2
:100B56006B06031DCB2D003021002706031DB52D86
:100B660001302606031DCB2DF10120008E1AF10A55
:100B760000304C06031DC12D4B087106031DCB2DFD
:100B8600EB01EC012100A601A7012000E701E80125
:100B96002100290820004E06031DD42D4D082100F2
:100BA60028060319E12D20004D082100A800200089
:0E0BB6004E082100A90088310020803108007F
:100BC4002000FA017308031D7A147708031DFA1430
:100BD4007A0803192D2E033A0319F82D7A18F52DE6
:100BE400F61F2B2E292EF21F292E2B2E7208803948
:100BF400FA00F21376088039F6137A060319062EE2
:100C04007A080319292E2B2E7708730203190D2E47
:100C1400031C212E252E760872020319142E031CA0
:100C2400212E252E7508710203191B2E031C212E5B
:100C3400252E7408700203192D2E0318252EFA0888
:100C440003192B2E292EFA080319292E2B2E0314EF
:0E0C5400080003100800031403150800080030
:100C620020007008F8007108F0007208F1007308A3
:100C7200F200F301FB01FC019E30F300FA010230A5
:060C8200FC005A230800EB
:100C880023008C018C168E0122009113931380305F
:100C98002100E8003E30E900EA01EB01E201E3014E
:100CA800E401E501B0308E0020008E0138302100CB
:100CB8008C0020008C018B170230210095008B16C8
:100CC800643020009500813098001110970196013A
:100CD800210011142000B501B6010B170030B10036
:100CE8000030B2004030B3008230B4002D30AD0087
:100CF8000030AE002D30AF000030B0002100E6011A
:100D0800E70120008C100C110E100C108E110E171C
:0C0D18000130BD000030BE004523080083
:100D240020007008F8007108F000F101F201F301ED
:100D3400FB01FC019630F300FA017008F100780819
:0A0D4400F000F801F201B4230800EA
:100D4E0012001E00F003031DA72EF103031DA72E94
:020D5E0008008B
:100D6000C8274426003021006706031DB92E013034
:100D70006606031DC42EE601E7012000BB01BC018D
:100D8000643095000B118B16E323003020003806E9
:100D9000031DCC2E01303706031DFA2E003042060B
:100DA000031DD42E01304106031DD72E8C100030B8
:100DB0004406031DDD2E01304306031DE02E0C11F9
:100DC00000304606031DE62E01304506031DE92EC0
:100DD0000E1000305406031DEF2E01305306031D84
:100DE000F22E0C100130D5000030D600B901BA0146
:100DF000B701B80100303A06031D002F0130390653
:100E0000031D2E2F00304206031D082F013041061E
:100E1000031D0B2F8C1400304406031D112F0130CD
:100E20004306031D142F0C1500304606031D1A2F10
:100E300001304506031D1D2F0E1400305406031DFE
:100E4000232F01305306031D262F0C140130C70039
:100E50000030C800B701B801B901BA010030210063
:100E60002106031D352F01302006031D442FA0014C
:100E7000A10120008C100C110E102100B601B70149
:100E8000452388310020803100302306031D4A2F7E
:100E900001302206031D812FA201A30120001608A4
:100EA0002100E200E301E401E5016208F0006308CB
:100EB000F1006408F2006508F30031260030F40008
:100EC0000030F5003830F6008230F700E2250130BE
:100ED000031C0030F00070080319732F0130CD009F
:100EE0000030CE00752FCD01CE014D18792F8E1117
:100EF0007A2F8E15960197010130BD000030BE009B
:060F00001814B22E822F2E
:100F900086308400873085004230F0000130F10057
:100FA0002D30860000308700A726233084008F3044
:100FB00085004230F0000130F100A03086000030A2
:060FC0008700A7260800CF
:10100000003021003106031D072800303006031987
:101010001D288031B52188316C08F0006D08F10081
:10102000F035F10DBE30700786000030713D87004D
:101030006008810061084131810000303906031DDC
:10104000232800303806031D29288031F4228831F6
:10105000742800303906031D2F2801303806031D7F
:10106000472800303706031D372801303606031D98
:1010700047280130BC000030BD0020008C140C1546
:101080000E148031B1218831AE01AF0174280030D7
:101090003906031D4D2801303806031D7428003021
:1010A0003B06031D552800303A06031D7428003006
:1010B00020004A06031D5E2800304906031D7428DF
:1010C00000304C06031D662800304B06031D7428B3
:1010D000003021003706031D6F2800303606031D3F
:1010E00074288031F4228831210000303906031D34
:1010F0007B2801303806031DAD2900303B06031D57
:10110000832800303A06031DAD29003020004A062E
:10111000031D8C2800304906031DAD2900304C0604
:10112000031D942801304B06031DAD29003021001A
:101130003706031D9D2800303606031DAD2920000B
:101140008C100C110130C7000030C8000130BF0006
:101150000030C000C101C201C301C4010130C5009B
:101160000030C600003021002F06031DB92846308C
:101170002E060319C42800302F06031DC12807308E
:101180002E060319C428E9284830AE000030AF000D
:1011900000303306031DCE2801303206031DDC2843
:1011A0001E30AE000030AF000130EE000030EF0026
:1011B000803123238831E82800303306031DE228DC
:1011C00002303206031DE8283230AE000030AF0096
:1011D000AD2900302F06031DEF2848302E06031DD1
:1011E000F228AD2900302F06031DF8286E302E0698
:1011F0000319032900302F06031D00290B302E068A
:101200000319032928297030AE000030AF000030E8
:101210003306031D0D2901303206031D1B291E3024
:10122000AE000030AF000130EE000030EF00803142
:1012300023238831272900303306031D2129043058
:101240003206031D27291E30AE000030AF00AD2945
:1012500000302F06031D2E2970302E06031D312964
:10126000AD2900302F06031D372998302E06031DA7
:101270003E29F230AE000530AF00AD292F08053A07
:10128000031D4429F2302E06031D4729AD290030E5
:101290002F06031D4D2999302E06031D5429FB30BE
:1012A000AE000530AF00AD292F08053A031D5A29BD
:1012B000FB302E06031D5D29AD2900302F06031DCE
:1012C000632903302E06031D6A291E30AE0000304C
:1012D000AF00AD2900302F06031D70291E302E06E9
:1012E000031D7329AD29003020004E06031D7A2905
:1012F00000304D06031D892902302100AE00003068
:10130000AF00E001E1018031B121883120000C10F3
:10131000AD29003021002F06031D902902302E0632
:10132000031D9E290330AE000030AF00E001E10153
:10133000EE01EF01803123238831AD290330AE0067
:101340000030AF00E001E1010130EE000030EF00BD
:1013500080312323883120000E1700302100390608
:10136000031DB42901303806031DE02A00303B0676
:10137000031DBC2900303A06031DE02A003020007E
:101380004A06031DC52901304906031DE02A003025
:101390004C06031DCD2900304B06031DE02A00300A
:1013A00021003706031DD62900303606031DE02A2A
:1013B00020008C100130C7000030C8000130BF0091
:1013C0000030C000C101C2010130C3000030C400C0
:1013D000C501C6010E10003021002F06031DF229A1
:1013E00046302E060319FD2900302F06031DFA2969
:1013F00007302E060319FD29222A4730AE0000309F
:10140000AF0000303306031D072A01303206031DEA
:101410000E2A3230AE000030AF00212A00303306F1
:10142000031D142A02303206031D212A3230AE0079
:101430000030AF000230EE000030EF008031232397
:101440008831E02A00302F06031D282A47302E0657
:10145000031D2B2AE02A00302F06031D312A82307B
:101460002E0603193C2A00302F06031D392A0D30A1
:101470002E0603193C2A602A8430AE00AF010030EA
:101480003306031D452A02303206031D532A32302B
:10149000AE000030AF000230EE000030EF008031CF
:1014A000232388315F2A00303306031D592A043074
:1014B0003206031D5F2A3230AE000030AF00E02A52
:1014C00000302F06031D662A84302E060319812A58
:1014D0002F08053A031D6E2AE8302E060319812ACB
:1014E0002F08053A031D762AFC302E060319812A9F
:1014F00000302F06031D7E2A32302E060319812A62
:10150000822AE02A00302F06031D882A97302E06F3
:10151000031D8F2AE830AE000530AF00E02A00300E
:101520002F06031D952A99302E06031D9C2AFC3098
:10153000AE000530AF00E02A00302F06031DA22ABE
:1015400005302E06031DA92A3230AE000030AF0050
:10155000E02A003020004E06031DB02A00304D0660
:10156000031DBB2A04302100AE000030AF008031E3
:10157000B1218831E02A210000302F06031DC22A44
:1015800004302E06031DD22A0530AE000030AF0015
:10159000E001E101EE01EF018031232388312000D9
:1015A0000C14E02A05302100AE000030AF00E0014D
:1015B000E1010230EE000030EF008031232388315A
:1015C000210000303906031DE72A01303806031DCB
:1015D000902B00303B06031DEF2A00303A06031D16
:1015E000902B003020004A06031DF82A01304906DE
:1015F000031D902B00304C06031D002B01304B06C1
:10160000031D902B003021003706031D092B0030ED
:101610003606031D902B20008C100130C7000030CF
:10162000C8000130BF000030C000C101C20101305C
:10163000C3000030C4000130C5000030C6000030D7
:1016400021002F06031D262B07302E06031D2D2BF0
:101650004630AE000030AF00902B00302F06031D47
:10166000332B46302E06031D362B902B00302F06D1
:10167000031D3C2B96302E06031D532B9930AE00D4
:10168000AF0100302D06031D472B07302C06031D2C
:10169000522BE001E1010330EE000030EF00803119
:1016A00023238831902B00302F06031D592B9930AE
:1016B0002E06031D5C2B902B003020004E06031DD0
:1016C000632B00304D06031D6E2B06302100AE004B
:1016D0000030AF008031B1218831902B21000030E3
:1016E0002F06031D752B06302E06031D832B073096
:1016F000AE000030AF00E001E101EE01EF0180310A
:1017000023238831902B0730AE000030AF00E0017A
:10171000E1010330EE000030EF00803123238831F7
:10172000210000303906031D972B01303806031DB8
:10173000C22C00303B06031D9F2B01303A06031DCF
:10174000C22C003020004A06031DA82B0030490699
:10175000031DC22C00304C06031DB02B00304B067D
:10176000031DC22C003021003706031DB92B0030A9
:101770003606031DC22C01302000C7000030C8000F
:101780000130BF000030C0000130C1000030C20095
:10179000C301C401C501C6010C110E1000302100A7
:1017A0002F06031DD52B6E302E060319E02B0030BB
:1017B0002F06031DDD2B0B302E060319E02B052C05
:1017C0006F30AE000030AF0000303306031DEA2B4F
:1017D00001303206031DF12B5A30AE000030AF004D
:1017E000042C00303306031DF72B04303206031D92
:1017F000042C5A30AE000030AF000430EE00003050
:10180000EF00803123238831C22C00302F06031DC6
:101810000B2C6F302E06031D0E2CC22C00302F0611
:10182000031D142C82302E0603191F2C00302F06A6
:10183000031D1C2C0D302E0603191F2C432C833046
:10184000AE00AF0100303306031D282C02303206F3
:10185000031D2F2C5A30AE000030AF00422C003058
:101860003306031D352C04303206031D422C5A303A
:10187000AE000030AF000430EE000030EF008031E9
:1018800023238831C22C00302F06031D492C8330BE
:101890002E06031D4C2CC22C00302F06031D522C8B
:1018A00097302E06031D592CE730AE000530AF00EF
:1018B000C22C2F08053A031D5F2CE7302E06031DAE
:1018C000622CC22C00302F06031D682C98302E0687
:1018D000031D6F2CF130AE000530AF00C22C2F0875
:1018E000053A031D752CF1302E06031D782CC22CF1
:1018F00000302F06031D7E2C09302E06031D852C7B
:101900005A30AE000030AF00C22C00302F06031D4D
:101910008B2C5A302E06031D8E2CC22C003020003A
:101920004E06031D952C00304D06031DA02C0830DB
:101930002100AE000030AF008031B1218831C22CCF
:10194000210000302F06031DA72C08302E06031D92
:10195000B52C0930AE000030AF00E001E101EE012E
:10196000EF01803123238831C22C0930AE000030D2
:10197000AF00E001E1010430EE000030EF00803103
:1019800023238831210000303906031DC92C013082
:101990003806031D732D00303B06031DD12C01308A
:1019A0003A06031D732D003020004A06031DDA2C71
:1019B00000304906031D732D00304C06031DE22C38
:1019C00001304B06031D732D003021003706031D27
:1019D000EB2C00303606031D732D01302000C700AC
:1019E0000030C8000130BF000030C0000130C1002D
:1019F0000030C200C301C4010130C5000030C60080
:101A00000C110E10003021002F06031D092D9630F9
:101A10002E06031D202D9830AE00AF0100302D069C
:101A2000031D142D0B302C06031D1F2DE001E101B9
:101A30000530EE000030EF00803123238831732D14
:101A400000302F06031D262D98302E06031D292D4C
:101A5000732D00302F06031D2F2D0B302E06031D76
:101A6000362D6E30AE000030AF00732D00302F06E3
:101A7000031D3C2D6E302E06031D3F2D732D0030AF
:101A800020004E06031D462D00304D06031D512D2E
:101A90000A302100AE000030AF008031B121883122
:101AA000732D210000302F06031D582D0A302E06FD
:101AB000031D662D0B30AE000030AF00E001E101E8
:101AC000EE01EF01803123238831732D0B30AE00FE
:101AD0000030AF00E001E1010530EE000030EF0022
:101AE000803123238831210000303906031D7A2DEF
:101AF00001303806031D242E00303B06031D822DC5
:101B000001303A06031D242E003020004A06031D32
:101B10008B2D01304906031D242E00304C06031D79
:101B2000932D00304B06031D242E00302100370674
:101B3000031D9C2D00303606031D242E013020008D
:101B4000C7000030C8000130BF000030C0000130C5
:101B5000C1000030C2000130C3000030C400C50124
:101B6000C6010C11003021002F06031DB92D96303F
:101B70002E06031DD02D9730AE00AF0100302D068C
:101B8000031DC42D0D302C06031DCF2DE001E101F6
:101B90000630EE000030EF00803123238831242E00
:101BA00000302F06031DD62D97302E06031DD92D8C
:101BB000242E00302F06031DDF2D0D302E06031DB1
:101BC000E52D8230AE00AF01242E00302F06031D1C
:101BD000EB2D82302E06031DEE2D242E003020002A
:101BE0004E06031DF52D00304D06031D002E0C3052
:101BF0002100AE000030AF008031B1218831242EA9
:101C0000210000302F06031D072E0C302E06031D69
:101C1000152E0D30AE000030AF00E001E101EE0105
:101C2000EF01803123238831242E0D30AE000030A7
:101C3000AF00E001E1010630EE000030EF0080313E
:101C40002323883120000E17003021003906031DA0
:101C50002B2E01303806031DB52E00303B06031D28
:101C6000332E01303A06031DB52E003020004A06FF
:101C7000031D3C2E01304906031DB52E00304C06D5
:101C8000031D442E01304B06031DB52E00302100EC
:101C90003706031D4D2E00303606031DB52E0130CC
:101CA0002000C7000030C8000130BF000030C00075
:101CB0000130C1000030C2000130C3000030C40058
:101CC0000130C5000030C60000304E06031D6A2EEC
:101CD00000304D06031D8A2E003021002F06031D03
:101CE000732E0F302E06031D792E9630AE00AF01F5
:101CF000892E00302F06031D7F2E96302E06031DE1
:101D0000822E892E0E30AE000030AF008031B1211E
:101D10008831B52E210000302F06031D912E0E3084
:101D20002E06031D9F2E0F30AE000030AF00E001E5
:101D3000E101EE01EF01803123238831B52E00301F
:101D40002F06031DA52E96302E06031DA82EB52E98
:101D50000F30AE000030AF00E001E1010730EE00CF
:101D60000030EF0080312323883100302000480606
:101D7000031DBC2E01304706031DEB2E003040062C
:101D8000031DC42E01303F06031DE12E0030420624
:101D9000031DCC2E01304106031DCF2E8C140030C4
:101DA0004406031DD52E01304306031DD82E0C1505
:101DB00000304606031DDE2E01304506031DE12ED0
:101DC0000E1400305406031DE72E01305306031D88
:101DD000EA2E0C141F2F00305606031DF12E013081
:101DE0005506031D1F2F00304006031DF92E01303C
:101DF0003F06031D162F00304206031D012F013040
:101E00004106031D042F8C1000304406031D0A2FC9
:101E100001304306031D0D2F0C1100304606031D33
:101E2000132F01304506031D162F0E1000305406E7
:101E3000031D1C2F01305306031D1F2F0C10803172
:061E4000DE2288310800DB
:040F0C000034003479
:040F10000034003475
:080F1400003400340034003405
:040F1C000034003469
:040F20000034003465
:040F24000034003461
:040F2800003400345D
:040F2C000034003459
:040F30000034003455
:0C0F340000340034003400340034003479
:040F40000034003445
:040F44000034003441
:040F4800003400343D
:040F4C000034003439
:040F50000034003435
:040F54000034003431
:040F5800003400342D
:040F5C000034003429
:040F60000034003425
:040F64000034003421
:040F6800003400341D
:040F6C000034003419
:040F70000034003415
:040F74000034003411
:040F7800003400340D
:040F7C000034003409
:040F80000034003405
:040F84000034003401
:040F880000340034FD
:040F8C0000340034F9
:041E46000034003430
:041E4A00003400342C
:041E4E000034003428
:041E52000034003424
:041E56000034003420
:041E5A00003400341C
:041E5E000034003418
:041E62000034003414
:041E66000034003410
:041E6A00003400340C
:041E6E000034003408
:041E72000034003404
:041E76000034003400
:041E7A0000340034FC
:041E7E0000340034F8
:101E820000340034003400340034003400340034B0
:101E920000340034003400340034003400340034A0
:101EA2000034003400340034003400340034003490
:101EB2000034003400340034003400340034003480
:041EC20000340034B4
:041EC60000340034B0
:020000040001F9
:04000E00443FFF3F2D
:00000001FF
